{
  "_format": "hh-sol-artifact-1",
  "contractName": "SimpleToken",
  "sourceName": "contracts/SimpleToken.sol",
  "abi": [
    {
      "inputs": [
        {
          "internalType": "string",
          "name": "_name",
          "type": "string"
        },
        {
          "internalType": "string",
          "name": "_symbol",
          "type": "string"
        },
        {
          "internalType": "uint8",
          "name": "_decimals",
          "type": "uint8"
        },
        {
          "internalType": "uint256",
          "name": "_initialSupply",
          "type": "uint256"
        }
      ],
      "stateMutability": "nonpayable",
      "type": "constructor"
    },
    {
      "anonymous": false,
      "inputs": [
        {
          "indexed": true,
          "internalType": "address",
          "name": "owner",
          "type": "address"
        },
        {
          "indexed": true,
          "internalType": "address",
          "name": "spender",
          "type": "address"
        },
        {
          "indexed": false,
          "internalType": "uint256",
          "name": "value",
          "type": "uint256"
        }
      ],
      "name": "Approval",
      "type": "event"
    },
    {
      "anonymous": false,
      "inputs": [
        {
          "indexed": true,
          "internalType": "address",
          "name": "to",
          "type": "address"
        },
        {
          "indexed": false,
          "internalType": "uint256",
          "name": "value",
          "type": "uint256"
        }
      ],
      "name": "Mint",
      "type": "event"
    },
    {
      "anonymous": false,
      "inputs": [
        {
          "indexed": true,
          "internalType": "address",
          "name": "from",
          "type": "address"
        },
        {
          "indexed": true,
          "internalType": "address",
          "name": "to",
          "type": "address"
        },
        {
          "indexed": false,
          "internalType": "uint256",
          "name": "value",
          "type": "uint256"
        }
      ],
      "name": "Transfer",
      "type": "event"
    },
    {
      "inputs": [
        {
          "internalType": "address",
          "name": "",
          "type": "address"
        },
        {
          "internalType": "address",
          "name": "",
          "type": "address"
        }
      ],
      "name": "allowance",
      "outputs": [
        {
          "internalType": "uint256",
          "name": "",
          "type": "uint256"
        }
      ],
      "stateMutability": "view",
      "type": "function"
    },
    {
      "inputs": [
        {
          "internalType": "address",
          "name": "_spender",
          "type": "address"
        },
        {
          "internalType": "uint256",
          "name": "_value",
          "type": "uint256"
        }
      ],
      "name": "approve",
      "outputs": [
        {
          "internalType": "bool",
          "name": "success",
          "type": "bool"
        }
      ],
      "stateMutability": "nonpayable",
      "type": "function"
    },
    {
      "inputs": [
        {
          "internalType": "address",
          "name": "",
          "type": "address"
        }
      ],
      "name": "balanceOf",
      "outputs": [
        {
          "internalType": "uint256",
          "name": "",
          "type": "uint256"
        }
      ],
      "stateMutability": "view",
      "type": "function"
    },
    {
      "inputs": [
        {
          "internalType": "uint256",
          "name": "_amount",
          "type": "uint256"
        }
      ],
      "name": "burn",
      "outputs": [
        {
          "internalType": "bool",
          "name": "success",
          "type": "bool"
        }
      ],
      "stateMutability": "nonpayable",
      "type": "function"
    },
    {
      "inputs": [],
      "name": "decimals",
      "outputs": [
        {
          "internalType": "uint8",
          "name": "",
          "type": "uint8"
        }
      ],
      "stateMutability": "view",
      "type": "function"
    },
    {
      "inputs": [
        {
          "internalType": "address",
          "name": "_to",
          "type": "address"
        },
        {
          "internalType": "uint256",
          "name": "_amount",
          "type": "uint256"
        }
      ],
      "name": "mint",
      "outputs": [
        {
          "internalType": "bool",
          "name": "success",
          "type": "bool"
        }
      ],
      "stateMutability": "nonpayable",
      "type": "function"
    },
    {
      "inputs": [],
      "name": "name",
      "outputs": [
        {
          "internalType": "string",
          "name": "",
          "type": "string"
        }
      ],
      "stateMutability": "view",
      "type": "function"
    },
    {
      "inputs": [],
      "name": "owner",
      "outputs": [
        {
          "internalType": "address",
          "name": "",
          "type": "address"
        }
      ],
      "stateMutability": "view",
      "type": "function"
    },
    {
      "inputs": [],
      "name": "symbol",
      "outputs": [
        {
          "internalType": "string",
          "name": "",
          "type": "string"
        }
      ],
      "stateMutability": "view",
      "type": "function"
    },
    {
      "inputs": [],
      "name": "totalSupply",
      "outputs": [
        {
          "internalType": "uint256",
          "name": "",
          "type": "uint256"
        }
      ],
      "stateMutability": "view",
      "type": "function"
    },
    {
      "inputs": [
        {
          "internalType": "address",
          "name": "_to",
          "type": "address"
        },
        {
          "internalType": "uint256",
          "name": "_value",
          "type": "uint256"
        }
      ],
      "name": "transfer",
      "outputs": [
        {
          "internalType": "bool",
          "name": "success",
          "type": "bool"
        }
      ],
      "stateMutability": "nonpayable",
      "type": "function"
    },
    {
      "inputs": [
        {
          "internalType": "address",
          "name": "_from",
          "type": "address"
        },
        {
          "internalType": "address",
          "name": "_to",
          "type": "address"
        },
        {
          "internalType": "uint256",
          "name": "_value",
          "type": "uint256"
        }
      ],
      "name": "transferFrom",
      "outputs": [
        {
          "internalType": "bool",
          "name": "success",
          "type": "bool"
        }
      ],
      "stateMutability": "nonpayable",
      "type": "function"
    }
  ],
  "bytecode": "0x60806040523480156200001157600080fd5b5060405162000faa38038062000faa833981016040819052620000349162000285565b60006200004285826200039f565b5060016200005184826200039f565b506002805460ff841660ff199091168117909155600680546001600160a01b031916339081179091556200009e916200008c90600a62000580565b62000098908462000595565b620000a8565b50505050620005c5565b6001600160a01b038216620000f55760405162461bcd60e51b815260206004820152600f60248201526e496e76616c6964206164647265737360881b604482015260640160405180910390fd5b8060036000828254620001099190620005af565b90915550506001600160a01b0382166000908152600460205260408120805483929062000138908490620005af565b90915550506040518181526001600160a01b038316907f0f6798a560793a54c3bcfe86a93cde1e73087d944c0ea20544137d41213968859060200160405180910390a26040518181526001600160a01b038316906000907fddf252ad1be2c89b69c2b068fc378daa952ba7f163c4a11628f55a4df523b3ef9060200160405180910390a35050565b634e487b7160e01b600052604160045260246000fd5b600082601f830112620001e857600080fd5b81516001600160401b0380821115620002055762000205620001c0565b604051601f8301601f19908116603f01168101908282118183101715620002305762000230620001c0565b816040528381526020925086838588010111156200024d57600080fd5b600091505b8382101562000271578582018301518183018401529082019062000252565b600093810190920192909252949350505050565b600080600080608085870312156200029c57600080fd5b84516001600160401b0380821115620002b457600080fd5b620002c288838901620001d6565b95506020870151915080821115620002d957600080fd5b50620002e887828801620001d6565b935050604085015160ff811681146200030057600080fd5b6060959095015193969295505050565b600181811c908216806200032557607f821691505b6020821081036200034657634e487b7160e01b600052602260045260246000fd5b50919050565b601f8211156200039a57600081815260208120601f850160051c81016020861015620003755750805b601f850160051c820191505b81811015620003965782815560010162000381565b5050505b505050565b81516001600160401b03811115620003bb57620003bb620001c0565b620003d381620003cc845462000310565b846200034c565b602080601f8311600181146200040b5760008415620003f25750858301515b600019600386901b1c1916600185901b17855562000396565b600085815260208120601f198616915b828110156200043c578886015182559484019460019091019084016200041b565b50858210156200045b5787850151600019600388901b60f8161c191681555b5050505050600190811b01905550565b634e487b7160e01b600052601160045260246000fd5b600181815b80851115620004c2578160001904821115620004a657620004a66200046b565b80851615620004b457918102915b93841c939080029062000486565b509250929050565b600082620004db575060016200057a565b81620004ea575060006200057a565b81600181146200050357600281146200050e576200052e565b60019150506200057a565b60ff8411156200052257620005226200046b565b50506001821b6200057a565b5060208310610133831016604e8410600b841016171562000553575081810a6200057a565b6200055f838362000481565b80600019048211156200057657620005766200046b565b0290505b92915050565b60006200058e8383620004ca565b9392505050565b80820281158282048414176200057a576200057a6200046b565b808201808211156200057a576200057a6200046b565b6109d580620005d56000396000f3fe608060405234801561001057600080fd5b50600436106100b45760003560e01c806342966c681161007157806342966c681461015657806370a08231146101695780638da5cb5b1461018957806395d89b41146101b4578063a9059cbb146101bc578063dd62ed3e146101cf57600080fd5b806306fdde03146100b9578063095ea7b3146100d757806318160ddd146100fa57806323b872dd14610111578063313ce5671461012457806340c10f1914610143575b600080fd5b6100c16101fa565b6040516100ce9190610774565b60405180910390f35b6100ea6100e53660046107de565b610288565b60405190151581526020016100ce565b61010360035481565b6040519081526020016100ce565b6100ea61011f366004610808565b6102f5565b6002546101319060ff1681565b60405160ff90911681526020016100ce565b6100ea6101513660046107de565b6104a5565b6100ea610164366004610844565b61051f565b61010361017736600461085d565b60046020526000908152604090205481565b60065461019c906001600160a01b031681565b6040516001600160a01b0390911681526020016100ce565b6100c16105b9565b6100ea6101ca3660046107de565b6105c6565b6101036101dd36600461087f565b600560209081526000928352604080842090915290825290205481565b60008054610207906108b2565b80601f0160208091040260200160405190810160405280929190818152602001828054610233906108b2565b80156102805780601f1061025557610100808354040283529160200191610280565b820191906000526020600020905b81548152906001019060200180831161026357829003601f168201915b505050505081565b3360008181526005602090815260408083206001600160a01b038716808552925280832085905551919290917f8c5be1e5ebec7d5bd14f71427d1e84f3dd0314c0f7b2291e5b200ac8c7c3b925906102e39086815260200190565b60405180910390a35060015b92915050565b60006001600160a01b0383166103265760405162461bcd60e51b815260040161031d906108ec565b60405180910390fd5b6001600160a01b03841660009081526004602052604090205482111561035e5760405162461bcd60e51b815260040161031d90610915565b6001600160a01b038085166000908152600560209081526040808320938716835292905220548211156103c85760405162461bcd60e51b8152602060048201526012602482015271105b1b1bddd85b98d948195e18d95959195960721b604482015260640161031d565b6001600160a01b038416600090815260046020526040812080548492906103f0908490610959565b90915550506001600160a01b0383166000908152600460205260408120805484929061041d90849061096c565b90915550506001600160a01b03808516600090815260056020908152604080832093871683529290529081208054849290610459908490610959565b92505081905550826001600160a01b0316846001600160a01b03166000805160206109808339815191528460405161049391815260200190565b60405180910390a35060019392505050565b6006546000906001600160a01b0316331461050c5760405162461bcd60e51b815260206004820152602160248201527f4f6e6c79206f776e65722063616e2063616c6c20746869732066756e6374696f6044820152603760f91b606482015260840161031d565b6105168383610699565b50600192915050565b3360009081526004602052604081205482111561054e5760405162461bcd60e51b815260040161031d90610915565b336000908152600460205260408120805484929061056d908490610959565b9250508190555081600360008282546105869190610959565b909155505060405182815260009033906000805160206109808339815191529060200160405180910390a3506001919050565b60018054610207906108b2565b60006001600160a01b0383166105ee5760405162461bcd60e51b815260040161031d906108ec565b3360009081526004602052604090205482111561061d5760405162461bcd60e51b815260040161031d90610915565b336000908152600460205260408120805484929061063c908490610959565b90915550506001600160a01b0383166000908152600460205260408120805484929061066990849061096c565b90915550506040518281526001600160a01b038416903390600080516020610980833981519152906020016102e3565b6001600160a01b0382166106bf5760405162461bcd60e51b815260040161031d906108ec565b80600360008282546106d1919061096c565b90915550506001600160a01b038216600090815260046020526040812080548392906106fe90849061096c565b90915550506040518181526001600160a01b038316907f0f6798a560793a54c3bcfe86a93cde1e73087d944c0ea20544137d41213968859060200160405180910390a26040518181526001600160a01b038316906000906000805160206109808339815191529060200160405180910390a35050565b600060208083528351808285015260005b818110156107a157858101830151858201604001528201610785565b506000604082860101526040601f19601f8301168501019250505092915050565b80356001600160a01b03811681146107d957600080fd5b919050565b600080604083850312156107f157600080fd5b6107fa836107c2565b946020939093013593505050565b60008060006060848603121561081d57600080fd5b610826846107c2565b9250610834602085016107c2565b9150604084013590509250925092565b60006020828403121561085657600080fd5b5035919050565b60006020828403121561086f57600080fd5b610878826107c2565b9392505050565b6000806040838503121561089257600080fd5b61089b836107c2565b91506108a9602084016107c2565b90509250929050565b600181811c908216806108c657607f821691505b6020821081036108e657634e487b7160e01b600052602260045260246000fd5b50919050565b6020808252600f908201526e496e76616c6964206164647265737360881b604082015260600190565b602080825260149082015273496e73756666696369656e742062616c616e636560601b604082015260600190565b634e487b7160e01b600052601160045260246000fd5b818103818111156102ef576102ef610943565b808201808211156102ef576102ef61094356feddf252ad1be2c89b69c2b068fc378daa952ba7f163c4a11628f55a4df523b3efa2646970667358221220731404ee236f1a2b12fb851151f47c4434e3cc8a67e6e9ef166d3980642f09d664736f6c63430008140033",
  "linkReferences": {},
  "deployedLinkReferences": {}
}